{
  "contractName": "TokenSwap",
  "abi": [
    {
      "inputs": [
        {
          "internalType": "address",
          "name": "_token1",
          "type": "address"
        },
        {
          "internalType": "address",
          "name": "_owner1",
          "type": "address"
        },
        {
          "internalType": "uint256",
          "name": "_amount1",
          "type": "uint256"
        },
        {
          "internalType": "address",
          "name": "_token2",
          "type": "address"
        },
        {
          "internalType": "address",
          "name": "_owner2",
          "type": "address"
        },
        {
          "internalType": "uint256",
          "name": "_amount2",
          "type": "uint256"
        }
      ],
      "stateMutability": "nonpayable",
      "type": "constructor"
    },
    {
      "anonymous": false,
      "inputs": [
        {
          "indexed": true,
          "internalType": "address",
          "name": "owner",
          "type": "address"
        },
        {
          "indexed": true,
          "internalType": "address",
          "name": "spender",
          "type": "address"
        },
        {
          "indexed": false,
          "internalType": "uint256",
          "name": "value",
          "type": "uint256"
        }
      ],
      "name": "Approval",
      "type": "event"
    },
    {
      "anonymous": false,
      "inputs": [
        {
          "indexed": true,
          "internalType": "address",
          "name": "from",
          "type": "address"
        },
        {
          "indexed": true,
          "internalType": "address",
          "name": "to",
          "type": "address"
        },
        {
          "indexed": false,
          "internalType": "uint256",
          "name": "value",
          "type": "uint256"
        }
      ],
      "name": "Transfer",
      "type": "event"
    },
    {
      "inputs": [
        {
          "internalType": "address",
          "name": "owner",
          "type": "address"
        },
        {
          "internalType": "address",
          "name": "spender",
          "type": "address"
        }
      ],
      "name": "allowance",
      "outputs": [
        {
          "internalType": "uint256",
          "name": "",
          "type": "uint256"
        }
      ],
      "stateMutability": "view",
      "type": "function"
    },
    {
      "inputs": [],
      "name": "amount1",
      "outputs": [
        {
          "internalType": "uint256",
          "name": "",
          "type": "uint256"
        }
      ],
      "stateMutability": "view",
      "type": "function"
    },
    {
      "inputs": [],
      "name": "amount2",
      "outputs": [
        {
          "internalType": "uint256",
          "name": "",
          "type": "uint256"
        }
      ],
      "stateMutability": "view",
      "type": "function"
    },
    {
      "inputs": [
        {
          "internalType": "address",
          "name": "spender",
          "type": "address"
        },
        {
          "internalType": "uint256",
          "name": "amount",
          "type": "uint256"
        }
      ],
      "name": "approve",
      "outputs": [
        {
          "internalType": "bool",
          "name": "",
          "type": "bool"
        }
      ],
      "stateMutability": "nonpayable",
      "type": "function"
    },
    {
      "inputs": [
        {
          "internalType": "address",
          "name": "account",
          "type": "address"
        }
      ],
      "name": "balanceOf",
      "outputs": [
        {
          "internalType": "uint256",
          "name": "",
          "type": "uint256"
        }
      ],
      "stateMutability": "view",
      "type": "function"
    },
    {
      "inputs": [],
      "name": "decimals",
      "outputs": [
        {
          "internalType": "uint8",
          "name": "",
          "type": "uint8"
        }
      ],
      "stateMutability": "view",
      "type": "function"
    },
    {
      "inputs": [
        {
          "internalType": "address",
          "name": "spender",
          "type": "address"
        },
        {
          "internalType": "uint256",
          "name": "subtractedValue",
          "type": "uint256"
        }
      ],
      "name": "decreaseAllowance",
      "outputs": [
        {
          "internalType": "bool",
          "name": "",
          "type": "bool"
        }
      ],
      "stateMutability": "nonpayable",
      "type": "function"
    },
    {
      "inputs": [
        {
          "internalType": "address",
          "name": "spender",
          "type": "address"
        },
        {
          "internalType": "uint256",
          "name": "addedValue",
          "type": "uint256"
        }
      ],
      "name": "increaseAllowance",
      "outputs": [
        {
          "internalType": "bool",
          "name": "",
          "type": "bool"
        }
      ],
      "stateMutability": "nonpayable",
      "type": "function"
    },
    {
      "inputs": [],
      "name": "name",
      "outputs": [
        {
          "internalType": "string",
          "name": "",
          "type": "string"
        }
      ],
      "stateMutability": "view",
      "type": "function"
    },
    {
      "inputs": [],
      "name": "owner1",
      "outputs": [
        {
          "internalType": "address",
          "name": "",
          "type": "address"
        }
      ],
      "stateMutability": "view",
      "type": "function"
    },
    {
      "inputs": [],
      "name": "owner2",
      "outputs": [
        {
          "internalType": "address",
          "name": "",
          "type": "address"
        }
      ],
      "stateMutability": "view",
      "type": "function"
    },
    {
      "inputs": [],
      "name": "symbol",
      "outputs": [
        {
          "internalType": "string",
          "name": "",
          "type": "string"
        }
      ],
      "stateMutability": "view",
      "type": "function"
    },
    {
      "inputs": [],
      "name": "token1",
      "outputs": [
        {
          "internalType": "contract IERC20",
          "name": "",
          "type": "address"
        }
      ],
      "stateMutability": "view",
      "type": "function"
    },
    {
      "inputs": [],
      "name": "token2",
      "outputs": [
        {
          "internalType": "contract IERC20",
          "name": "",
          "type": "address"
        }
      ],
      "stateMutability": "view",
      "type": "function"
    },
    {
      "inputs": [],
      "name": "totalSupply",
      "outputs": [
        {
          "internalType": "uint256",
          "name": "",
          "type": "uint256"
        }
      ],
      "stateMutability": "view",
      "type": "function"
    },
    {
      "inputs": [
        {
          "internalType": "address",
          "name": "to",
          "type": "address"
        },
        {
          "internalType": "uint256",
          "name": "amount",
          "type": "uint256"
        }
      ],
      "name": "transfer",
      "outputs": [
        {
          "internalType": "bool",
          "name": "",
          "type": "bool"
        }
      ],
      "stateMutability": "nonpayable",
      "type": "function"
    },
    {
      "inputs": [
        {
          "internalType": "address",
          "name": "from",
          "type": "address"
        },
        {
          "internalType": "address",
          "name": "to",
          "type": "address"
        },
        {
          "internalType": "uint256",
          "name": "amount",
          "type": "uint256"
        }
      ],
      "name": "transferFrom",
      "outputs": [
        {
          "internalType": "bool",
          "name": "",
          "type": "bool"
        }
      ],
      "stateMutability": "nonpayable",
      "type": "function"
    },
    {
      "inputs": [],
      "name": "swap",
      "outputs": [],
      "stateMutability": "nonpayable",
      "type": "function"
    }
  ],
  "bytecode": "0x60806040523480156200001157600080fd5b50604051620020863803806200208683398181016040528101906200003791906200034a565b6040518060400160405280600281526020017f736b0000000000000000000000000000000000000000000000000000000000008152506040518060400160405280600281526020017f736b0000000000000000000000000000000000000000000000000000000000008152508160039080519060200190620000bb929190620001f5565b508060049080519060200190620000d4929190620001f5565b50505085600560006101000a81548173ffffffffffffffffffffffffffffffffffffffff021916908373ffffffffffffffffffffffffffffffffffffffff16021790555084600660006101000a81548173ffffffffffffffffffffffffffffffffffffffff021916908373ffffffffffffffffffffffffffffffffffffffff1602179055508360078190555082600860006101000a81548173ffffffffffffffffffffffffffffffffffffffff021916908373ffffffffffffffffffffffffffffffffffffffff16021790555081600960006101000a81548173ffffffffffffffffffffffffffffffffffffffff021916908373ffffffffffffffffffffffffffffffffffffffff16021790555080600a819055505050505050506200044b565b828054620002039062000415565b90600052602060002090601f01602090048101928262000227576000855562000273565b82601f106200024257805160ff191683800117855562000273565b8280016001018555821562000273579182015b828111156200027257825182559160200191906001019062000255565b5b50905062000282919062000286565b5090565b5b80821115620002a157600081600090555060010162000287565b5090565b600080fd5b600073ffffffffffffffffffffffffffffffffffffffff82169050919050565b6000620002d782620002aa565b9050919050565b620002e981620002ca565b8114620002f557600080fd5b50565b6000815190506200030981620002de565b92915050565b6000819050919050565b62000324816200030f565b81146200033057600080fd5b50565b600081519050620003448162000319565b92915050565b60008060008060008060c087890312156200036a5762000369620002a5565b5b60006200037a89828a01620002f8565b96505060206200038d89828a01620002f8565b9550506040620003a089828a0162000333565b9450506060620003b389828a01620002f8565b9350506080620003c689828a01620002f8565b92505060a0620003d989828a0162000333565b9150509295509295509295565b7f4e487b7100000000000000000000000000000000000000000000000000000000600052602260045260246000fd5b600060028204905060018216806200042e57607f821691505b60208210811415620004455762000444620003e6565b5b50919050565b611c2b806200045b6000396000f3fe608060405234801561001057600080fd5b50600436106101165760003560e01c806370a08231116100a2578063a457c2d711610071578063a457c2d7146102d5578063a9059cbb14610305578063d21220a714610335578063dd62ed3e14610353578063f400fde41461038357610116565b806370a082311461025f578063736889141461028f5780638119c065146102ad57806395d89b41146102b757610116565b806323b872dd116100e957806323b872dd146101a557806325be124e146101d5578063313ce567146101f35780633950935114610211578063527097251461024157610116565b8063057bfcc71461011b57806306fdde0314610139578063095ea7b31461015757806318160ddd14610187575b600080fd5b6101236103a1565b6040516101309190611116565b60405180910390f35b6101416103a7565b60405161014e91906111ca565b60405180910390f35b610171600480360381019061016c919061127b565b610439565b60405161017e91906112d6565b60405180910390f35b61018f61045c565b60405161019c9190611116565b60405180910390f35b6101bf60048036038101906101ba91906112f1565b610466565b6040516101cc91906112d6565b60405180910390f35b6101dd610495565b6040516101ea91906113a3565b60405180910390f35b6101fb6104bb565b60405161020891906113da565b60405180910390f35b61022b6004803603810190610226919061127b565b6104c4565b60405161023891906112d6565b60405180910390f35b6102496104fb565b6040516102569190611404565b60405180910390f35b6102796004803603810190610274919061141f565b610521565b6040516102869190611116565b60405180910390f35b610297610569565b6040516102a49190611404565b60405180910390f35b6102b561058f565b005b6102bf610969565b6040516102cc91906111ca565b60405180910390f35b6102ef60048036038101906102ea919061127b565b6109fb565b6040516102fc91906112d6565b60405180910390f35b61031f600480360381019061031a919061127b565b610a72565b60405161032c91906112d6565b60405180910390f35b61033d610a95565b60405161034a91906113a3565b60405180910390f35b61036d6004803603810190610368919061144c565b610abb565b60405161037a9190611116565b60405180910390f35b61038b610b42565b6040516103989190611116565b60405180910390f35b600a5481565b6060600380546103b6906114bb565b80601f01602080910402602001604051908101604052809291908181526020018280546103e2906114bb565b801561042f5780601f106104045761010080835404028352916020019161042f565b820191906000526020600020905b81548152906001019060200180831161041257829003601f168201915b5050505050905090565b600080610444610b48565b9050610451818585610b50565b600191505092915050565b6000600254905090565b600080610471610b48565b905061047e858285610d1b565b610489858585610da7565b60019150509392505050565b600860009054906101000a900473ffffffffffffffffffffffffffffffffffffffff1681565b60006012905090565b6000806104cf610b48565b90506104f08185856104e18589610abb565b6104eb919061151c565b610b50565b600191505092915050565b600960009054906101000a900473ffffffffffffffffffffffffffffffffffffffff1681565b60008060008373ffffffffffffffffffffffffffffffffffffffff1673ffffffffffffffffffffffffffffffffffffffff168152602001908152602001600020549050919050565b600660009054906101000a900473ffffffffffffffffffffffffffffffffffffffff1681565b600660009054906101000a900473ffffffffffffffffffffffffffffffffffffffff1673ffffffffffffffffffffffffffffffffffffffff163373ffffffffffffffffffffffffffffffffffffffff1614806106385750600960009054906101000a900473ffffffffffffffffffffffffffffffffffffffff1673ffffffffffffffffffffffffffffffffffffffff163373ffffffffffffffffffffffffffffffffffffffff16145b610677576040517f08c379a000000000000000000000000000000000000000000000000000000000815260040161066e906115be565b60405180910390fd5b600754600560009054906101000a900473ffffffffffffffffffffffffffffffffffffffff1673ffffffffffffffffffffffffffffffffffffffff1663dd62ed3e600660009054906101000a900473ffffffffffffffffffffffffffffffffffffffff16306040518363ffffffff1660e01b81526004016106f99291906115de565b602060405180830381865afa158015610716573d6000803e3d6000fd5b505050506040513d601f19601f8201168201806040525081019061073a919061161c565b101561077b576040517f08c379a000000000000000000000000000000000000000000000000000000000815260040161077290611695565b60405180910390fd5b600a54600860009054906101000a900473ffffffffffffffffffffffffffffffffffffffff1673ffffffffffffffffffffffffffffffffffffffff1663dd62ed3e600960009054906101000a900473ffffffffffffffffffffffffffffffffffffffff16306040518363ffffffff1660e01b81526004016107fd9291906115de565b602060405180830381865afa15801561081a573d6000803e3d6000fd5b505050506040513d601f19601f8201168201806040525081019061083e919061161c565b101561087f576040517f08c379a000000000000000000000000000000000000000000000000000000000815260040161087690611701565b60405180910390fd5b6108f3600560009054906101000a900473ffffffffffffffffffffffffffffffffffffffff16600660009054906101000a900473ffffffffffffffffffffffffffffffffffffffff16600960009054906101000a900473ffffffffffffffffffffffffffffffffffffffff16600754611028565b610967600860009054906101000a900473ffffffffffffffffffffffffffffffffffffffff16600960009054906101000a900473ffffffffffffffffffffffffffffffffffffffff16600660009054906101000a900473ffffffffffffffffffffffffffffffffffffffff16600a54611028565b565b606060048054610978906114bb565b80601f01602080910402602001604051908101604052809291908181526020018280546109a4906114bb565b80156109f15780601f106109c6576101008083540402835291602001916109f1565b820191906000526020600020905b8154815290600101906020018083116109d457829003601f168201915b5050505050905090565b600080610a06610b48565b90506000610a148286610abb565b905083811015610a59576040517f08c379a0000000000000000000000000000000000000000000000000000000008152600401610a5090611793565b60405180910390fd5b610a668286868403610b50565b60019250505092915050565b600080610a7d610b48565b9050610a8a818585610da7565b600191505092915050565b600560009054906101000a900473ffffffffffffffffffffffffffffffffffffffff1681565b6000600160008473ffffffffffffffffffffffffffffffffffffffff1673ffffffffffffffffffffffffffffffffffffffff16815260200190815260200160002060008373ffffffffffffffffffffffffffffffffffffffff1673ffffffffffffffffffffffffffffffffffffffff16815260200190815260200160002054905092915050565b60075481565b600033905090565b600073ffffffffffffffffffffffffffffffffffffffff168373ffffffffffffffffffffffffffffffffffffffff161415610bc0576040517f08c379a0000000000000000000000000000000000000000000000000000000008152600401610bb790611825565b60405180910390fd5b600073ffffffffffffffffffffffffffffffffffffffff168273ffffffffffffffffffffffffffffffffffffffff161415610c30576040517f08c379a0000000000000000000000000000000000000000000000000000000008152600401610c27906118b7565b60405180910390fd5b80600160008573ffffffffffffffffffffffffffffffffffffffff1673ffffffffffffffffffffffffffffffffffffffff16815260200190815260200160002060008473ffffffffffffffffffffffffffffffffffffffff1673ffffffffffffffffffffffffffffffffffffffff168152602001908152602001600020819055508173ffffffffffffffffffffffffffffffffffffffff168373ffffffffffffffffffffffffffffffffffffffff167f8c5be1e5ebec7d5bd14f71427d1e84f3dd0314c0f7b2291e5b200ac8c7c3b92583604051610d0e9190611116565b60405180910390a3505050565b6000610d278484610abb565b90507fffffffffffffffffffffffffffffffffffffffffffffffffffffffffffffffff8114610da15781811015610d93576040517f08c379a0000000000000000000000000000000000000000000000000000000008152600401610d8a90611923565b60405180910390fd5b610da08484848403610b50565b5b50505050565b600073ffffffffffffffffffffffffffffffffffffffff168373ffffffffffffffffffffffffffffffffffffffff161415610e17576040517f08c379a0000000000000000000000000000000000000000000000000000000008152600401610e0e906119b5565b60405180910390fd5b600073ffffffffffffffffffffffffffffffffffffffff168273ffffffffffffffffffffffffffffffffffffffff161415610e87576040517f08c379a0000000000000000000000000000000000000000000000000000000008152600401610e7e90611a47565b60405180910390fd5b610e928383836110f3565b60008060008573ffffffffffffffffffffffffffffffffffffffff1673ffffffffffffffffffffffffffffffffffffffff16815260200190815260200160002054905081811015610f18576040517f08c379a0000000000000000000000000000000000000000000000000000000008152600401610f0f90611ad9565b60405180910390fd5b8181036000808673ffffffffffffffffffffffffffffffffffffffff1673ffffffffffffffffffffffffffffffffffffffff16815260200190815260200160002081905550816000808573ffffffffffffffffffffffffffffffffffffffff1673ffffffffffffffffffffffffffffffffffffffff1681526020019081526020016000206000828254610fab919061151c565b925050819055508273ffffffffffffffffffffffffffffffffffffffff168473ffffffffffffffffffffffffffffffffffffffff167fddf252ad1be2c89b69c2b068fc378daa952ba7f163c4a11628f55a4df523b3ef8460405161100f9190611116565b60405180910390a36110228484846110f8565b50505050565b60008473ffffffffffffffffffffffffffffffffffffffff166323b872dd8585856040518463ffffffff1660e01b815260040161106793929190611af9565b6020604051808303816000875af1158015611086573d6000803e3d6000fd5b505050506040513d601f19601f820116820180604052508101906110aa9190611b5c565b9050806110ec576040517f08c379a00000000000000000000000000000000000000000000000000000000081526004016110e390611bd5565b60405180910390fd5b5050505050565b505050565b505050565b6000819050919050565b611110816110fd565b82525050565b600060208201905061112b6000830184611107565b92915050565b600081519050919050565b600082825260208201905092915050565b60005b8381101561116b578082015181840152602081019050611150565b8381111561117a576000848401525b50505050565b6000601f19601f8301169050919050565b600061119c82611131565b6111a6818561113c565b93506111b681856020860161114d565b6111bf81611180565b840191505092915050565b600060208201905081810360008301526111e48184611191565b905092915050565b600080fd5b600073ffffffffffffffffffffffffffffffffffffffff82169050919050565b600061121c826111f1565b9050919050565b61122c81611211565b811461123757600080fd5b50565b60008135905061124981611223565b92915050565b611258816110fd565b811461126357600080fd5b50565b6000813590506112758161124f565b92915050565b60008060408385031215611292576112916111ec565b5b60006112a08582860161123a565b92505060206112b185828601611266565b9150509250929050565b60008115159050919050565b6112d0816112bb565b82525050565b60006020820190506112eb60008301846112c7565b92915050565b60008060006060848603121561130a576113096111ec565b5b60006113188682870161123a565b93505060206113298682870161123a565b925050604061133a86828701611266565b9150509250925092565b6000819050919050565b600061136961136461135f846111f1565b611344565b6111f1565b9050919050565b600061137b8261134e565b9050919050565b600061138d82611370565b9050919050565b61139d81611382565b82525050565b60006020820190506113b86000830184611394565b92915050565b600060ff82169050919050565b6113d4816113be565b82525050565b60006020820190506113ef60008301846113cb565b92915050565b6113fe81611211565b82525050565b600060208201905061141960008301846113f5565b92915050565b600060208284031215611435576114346111ec565b5b60006114438482850161123a565b91505092915050565b60008060408385031215611463576114626111ec565b5b60006114718582860161123a565b92505060206114828582860161123a565b9150509250929050565b7f4e487b7100000000000000000000000000000000000000000000000000000000600052602260045260246000fd5b600060028204905060018216806114d357607f821691505b602082108114156114e7576114e661148c565b5b50919050565b7f4e487b7100000000000000000000000000000000000000000000000000000000600052601160045260246000fd5b6000611527826110fd565b9150611532836110fd565b9250827fffffffffffffffffffffffffffffffffffffffffffffffffffffffffffffffff03821115611567576115666114ed565b5b828201905092915050565b7f4e6f7420617574686f72697a6564000000000000000000000000000000000000600082015250565b60006115a8600e8361113c565b91506115b382611572565b602082019050919050565b600060208201905081810360008301526115d78161159b565b9050919050565b60006040820190506115f360008301856113f5565b61160060208301846113f5565b9392505050565b6000815190506116168161124f565b92915050565b600060208284031215611632576116316111ec565b5b600061164084828501611607565b91505092915050565b7f546f6b656e203120616c6c6f77616e636520746f6f206c6f7700000000000000600082015250565b600061167f60198361113c565b915061168a82611649565b602082019050919050565b600060208201905081810360008301526116ae81611672565b9050919050565b7f546f6b656e203220616c6c6f77616e636520746f6f206c6f7700000000000000600082015250565b60006116eb60198361113c565b91506116f6826116b5565b602082019050919050565b6000602082019050818103600083015261171a816116de565b9050919050565b7f45524332303a2064656372656173656420616c6c6f77616e63652062656c6f7760008201527f207a65726f000000000000000000000000000000000000000000000000000000602082015250565b600061177d60258361113c565b915061178882611721565b604082019050919050565b600060208201905081810360008301526117ac81611770565b9050919050565b7f45524332303a20617070726f76652066726f6d20746865207a65726f2061646460008201527f7265737300000000000000000000000000000000000000000000000000000000602082015250565b600061180f60248361113c565b915061181a826117b3565b604082019050919050565b6000602082019050818103600083015261183e81611802565b9050919050565b7f45524332303a20617070726f766520746f20746865207a65726f20616464726560008201527f7373000000000000000000000000000000000000000000000000000000000000602082015250565b60006118a160228361113c565b91506118ac82611845565b604082019050919050565b600060208201905081810360008301526118d081611894565b9050919050565b7f45524332303a20696e73756666696369656e7420616c6c6f77616e6365000000600082015250565b600061190d601d8361113c565b9150611918826118d7565b602082019050919050565b6000602082019050818103600083015261193c81611900565b9050919050565b7f45524332303a207472616e736665722066726f6d20746865207a65726f20616460008201527f6472657373000000000000000000000000000000000000000000000000000000602082015250565b600061199f60258361113c565b91506119aa82611943565b604082019050919050565b600060208201905081810360008301526119ce81611992565b9050919050565b7f45524332303a207472616e7366657220746f20746865207a65726f206164647260008201527f6573730000000000000000000000000000000000000000000000000000000000602082015250565b6000611a3160238361113c565b9150611a3c826119d5565b604082019050919050565b60006020820190508181036000830152611a6081611a24565b9050919050565b7f45524332303a207472616e7366657220616d6f756e742065786365656473206260008201527f616c616e63650000000000000000000000000000000000000000000000000000602082015250565b6000611ac360268361113c565b9150611ace82611a67565b604082019050919050565b60006020820190508181036000830152611af281611ab6565b9050919050565b6000606082019050611b0e60008301866113f5565b611b1b60208301856113f5565b611b286040830184611107565b949350505050565b611b39816112bb565b8114611b4457600080fd5b50565b600081519050611b5681611b30565b92915050565b600060208284031215611b7257611b716111ec565b5b6000611b8084828501611b47565b91505092915050565b7f546f6b656e207472616e73666572206661696c65640000000000000000000000600082015250565b6000611bbf60158361113c565b9150611bca82611b89565b602082019050919050565b60006020820190508181036000830152611bee81611bb2565b905091905056fea2646970667358221220e388a836c263086c454cdcf118a00a5b022a2f3a09bb3eb75a51ad07d82c4ffd64736f6c634300080b0033",
  "immutableReferences": {},
  "source": "// SPDX-License-Identifier: MIT\r\npragma solidity >=0.4.22 <0.9.0;\r\n\r\nimport \"@openzeppelin/contracts/token/ERC20/ERC20.sol\";\r\nimport \"@openzeppelin/contracts/token/ERC20/IERC20.sol\";\r\n// interface IERC20 { \r\n\r\n//     function totalSupply() external view returns (uint256);\r\n//     function balanceOf(address tokenOwner) external view returns (uint256 balance);\r\n//     function transfer(address to, uint256 tokens) external returns (bool success);\r\n//     function allowance(address tokenOwner, address spender) external view returns (uint256 remaining);\r\n//     function approve(address spender, uint256 tokens) external returns (bool success);\r\n//     function transferFrom(address from,address to,uint256 tokens) external returns (bool success);\r\n\r\n//     event Transfer(address indexed from, address indexed to, uint256 tokens);\r\n//     event Approval(address indexed tokenOwner,address indexed spender,uint256 tokens);\r\n// }\r\n\r\ncontract TokenSwap is ERC20(\"sk\", \"sk\") {\r\n    IERC20 public token1;\r\n    address public owner1;\r\n    uint public amount1;\r\n    IERC20 public token2;\r\n    address public owner2;\r\n    uint public amount2;\r\n\r\n    constructor(\r\n        address _token1,\r\n        address _owner1,\r\n        uint _amount1,\r\n        address _token2,\r\n        address _owner2,\r\n        uint _amount2\r\n    ) {\r\n        token1 = IERC20(_token1);\r\n        owner1 = _owner1;\r\n        amount1 = _amount1;\r\n        token2 = IERC20(_token2);\r\n        owner2 = _owner2;\r\n        amount2 = _amount2;\r\n    }\r\n\r\n    function swap() public {\r\n        require(msg.sender == owner1 || msg.sender == owner2, \"Not authorized\");\r\n        require(\r\n            token1.allowance(owner1, address(this)) >= amount1,\r\n            \"Token 1 allowance too low\"\r\n        );\r\n        require(\r\n            token2.allowance(owner2, address(this)) >= amount2,\r\n            \"Token 2 allowance too low\"\r\n        );\r\n\r\n        _safeTransferFrom(token1, owner1, owner2, amount1);\r\n        _safeTransferFrom(token2, owner2, owner1, amount2);\r\n    }\r\n\r\n    function _safeTransferFrom(\r\n        IERC20 token,\r\n        address sender,\r\n        address recipient,                                         \r\n        uint amount\r\n    ) private {\r\n        bool sent = token.transferFrom(sender, recipient, amount);\r\n        require(sent, \"Token transfer failed\");\r\n    }\r\n\r\n   \r\n}\r\n\r\n\r\n",
  "sourcePath": "C:\\Users\\harshita saxena\\OneDrive\\Desktop\\Lab5\\contracts\\TokenSwap.sol",
  "compiler": {
    "name": "solc",
    "version": "0.8.11+commit.d7f03943.Emscripten.clang"
  },
  "schemaVersion": "3.4.4",
  "updatedAt": "2022-07-20T06:41:07.351Z",
  "devdoc": {
    "kind": "dev",
    "methods": {
      "allowance(address,address)": {
        "details": "See {IERC20-allowance}."
      },
      "approve(address,uint256)": {
        "details": "See {IERC20-approve}. NOTE: If `amount` is the maximum `uint256`, the allowance is not updated on `transferFrom`. This is semantically equivalent to an infinite approval. Requirements: - `spender` cannot be the zero address."
      },
      "balanceOf(address)": {
        "details": "See {IERC20-balanceOf}."
      },
      "decimals()": {
        "details": "Returns the number of decimals used to get its user representation. For example, if `decimals` equals `2`, a balance of `505` tokens should be displayed to a user as `5.05` (`505 / 10 ** 2`). Tokens usually opt for a value of 18, imitating the relationship between Ether and Wei. This is the value {ERC20} uses, unless this function is overridden; NOTE: This information is only used for _display_ purposes: it in no way affects any of the arithmetic of the contract, including {IERC20-balanceOf} and {IERC20-transfer}."
      },
      "decreaseAllowance(address,uint256)": {
        "details": "Atomically decreases the allowance granted to `spender` by the caller. This is an alternative to {approve} that can be used as a mitigation for problems described in {IERC20-approve}. Emits an {Approval} event indicating the updated allowance. Requirements: - `spender` cannot be the zero address. - `spender` must have allowance for the caller of at least `subtractedValue`."
      },
      "increaseAllowance(address,uint256)": {
        "details": "Atomically increases the allowance granted to `spender` by the caller. This is an alternative to {approve} that can be used as a mitigation for problems described in {IERC20-approve}. Emits an {Approval} event indicating the updated allowance. Requirements: - `spender` cannot be the zero address."
      },
      "name()": {
        "details": "Returns the name of the token."
      },
      "symbol()": {
        "details": "Returns the symbol of the token, usually a shorter version of the name."
      },
      "totalSupply()": {
        "details": "See {IERC20-totalSupply}."
      },
      "transfer(address,uint256)": {
        "details": "See {IERC20-transfer}. Requirements: - `to` cannot be the zero address. - the caller must have a balance of at least `amount`."
      },
      "transferFrom(address,address,uint256)": {
        "details": "See {IERC20-transferFrom}. Emits an {Approval} event indicating the updated allowance. This is not required by the EIP. See the note at the beginning of {ERC20}. NOTE: Does not update the allowance if the current allowance is the maximum `uint256`. Requirements: - `from` and `to` cannot be the zero address. - `from` must have a balance of at least `amount`. - the caller must have allowance for ``from``'s tokens of at least `amount`."
      }
    },
    "version": 1
  },
  "userdoc": {
    "kind": "user",
    "methods": {},
    "version": 1
  }
}