{
  "contractName": "TokenSwap",
  "abi": [
    {
      "inputs": [
        {
          "internalType": "address",
          "name": "_token1",
          "type": "address"
        },
        {
          "internalType": "address",
          "name": "_owner1",
          "type": "address"
        },
        {
          "internalType": "uint256",
          "name": "_amount1",
          "type": "uint256"
        },
        {
          "internalType": "address",
          "name": "_token2",
          "type": "address"
        },
        {
          "internalType": "address",
          "name": "_owner2",
          "type": "address"
        },
        {
          "internalType": "uint256",
          "name": "_amount2",
          "type": "uint256"
        }
      ],
      "stateMutability": "nonpayable",
      "type": "constructor"
    },
    {
      "inputs": [],
      "name": "amount1",
      "outputs": [
        {
          "internalType": "uint256",
          "name": "",
          "type": "uint256"
        }
      ],
      "stateMutability": "view",
      "type": "function"
    },
    {
      "inputs": [],
      "name": "amount2",
      "outputs": [
        {
          "internalType": "uint256",
          "name": "",
          "type": "uint256"
        }
      ],
      "stateMutability": "view",
      "type": "function"
    },
    {
      "inputs": [],
      "name": "owner1",
      "outputs": [
        {
          "internalType": "address",
          "name": "",
          "type": "address"
        }
      ],
      "stateMutability": "view",
      "type": "function"
    },
    {
      "inputs": [],
      "name": "owner2",
      "outputs": [
        {
          "internalType": "address",
          "name": "",
          "type": "address"
        }
      ],
      "stateMutability": "view",
      "type": "function"
    },
    {
      "inputs": [],
      "name": "token1",
      "outputs": [
        {
          "internalType": "contract IERC20",
          "name": "",
          "type": "address"
        }
      ],
      "stateMutability": "view",
      "type": "function"
    },
    {
      "inputs": [],
      "name": "token2",
      "outputs": [
        {
          "internalType": "contract IERC20",
          "name": "",
          "type": "address"
        }
      ],
      "stateMutability": "view",
      "type": "function"
    },
    {
      "inputs": [],
      "name": "swap",
      "outputs": [],
      "stateMutability": "nonpayable",
      "type": "function"
    }
  ],
  "bytecode": "0x60806040523480156200001157600080fd5b5060405162000d4c38038062000d4c8339818101604052810190620000379190620001f9565b856000806101000a81548173ffffffffffffffffffffffffffffffffffffffff021916908373ffffffffffffffffffffffffffffffffffffffff16021790555084600160006101000a81548173ffffffffffffffffffffffffffffffffffffffff021916908373ffffffffffffffffffffffffffffffffffffffff1602179055508360028190555082600360006101000a81548173ffffffffffffffffffffffffffffffffffffffff021916908373ffffffffffffffffffffffffffffffffffffffff16021790555081600460006101000a81548173ffffffffffffffffffffffffffffffffffffffff021916908373ffffffffffffffffffffffffffffffffffffffff1602179055508060058190555050505050505062000295565b600080fd5b600073ffffffffffffffffffffffffffffffffffffffff82169050919050565b6000620001868262000159565b9050919050565b620001988162000179565b8114620001a457600080fd5b50565b600081519050620001b8816200018d565b92915050565b6000819050919050565b620001d381620001be565b8114620001df57600080fd5b50565b600081519050620001f381620001c8565b92915050565b60008060008060008060c0878903121562000219576200021862000154565b5b60006200022989828a01620001a7565b96505060206200023c89828a01620001a7565b95505060406200024f89828a01620001e2565b94505060606200026289828a01620001a7565b93505060806200027589828a01620001a7565b92505060a06200028889828a01620001e2565b9150509295509295509295565b610aa780620002a56000396000f3fe608060405234801561001057600080fd5b506004361061007d5760003560e01c8063736889141161005b57806373688914146100dc5780638119c065146100fa578063d21220a714610104578063f400fde4146101225761007d565b8063057bfcc71461008257806325be124e146100a057806352709725146100be575b600080fd5b61008a610140565b604051610097919061069c565b60405180910390f35b6100a8610146565b6040516100b59190610736565b60405180910390f35b6100c661016c565b6040516100d39190610772565b60405180910390f35b6100e4610192565b6040516100f19190610772565b60405180910390f35b6101026101b8565b005b61010c61058e565b6040516101199190610736565b60405180910390f35b61012a6105b2565b604051610137919061069c565b60405180910390f35b60055481565b600360009054906101000a900473ffffffffffffffffffffffffffffffffffffffff1681565b600460009054906101000a900473ffffffffffffffffffffffffffffffffffffffff1681565b600160009054906101000a900473ffffffffffffffffffffffffffffffffffffffff1681565b600160009054906101000a900473ffffffffffffffffffffffffffffffffffffffff1673ffffffffffffffffffffffffffffffffffffffff163373ffffffffffffffffffffffffffffffffffffffff1614806102615750600460009054906101000a900473ffffffffffffffffffffffffffffffffffffffff1673ffffffffffffffffffffffffffffffffffffffff163373ffffffffffffffffffffffffffffffffffffffff16145b6102a0576040517f08c379a0000000000000000000000000000000000000000000000000000000008152600401610297906107ea565b60405180910390fd5b60025460008054906101000a900473ffffffffffffffffffffffffffffffffffffffff1673ffffffffffffffffffffffffffffffffffffffff1663dd62ed3e600160009054906101000a900473ffffffffffffffffffffffffffffffffffffffff16306040518363ffffffff1660e01b815260040161032092919061080a565b602060405180830381865afa15801561033d573d6000803e3d6000fd5b505050506040513d601f19601f820116820180604052508101906103619190610864565b10156103a2576040517f08c379a0000000000000000000000000000000000000000000000000000000008152600401610399906108dd565b60405180910390fd5b600554600360009054906101000a900473ffffffffffffffffffffffffffffffffffffffff1673ffffffffffffffffffffffffffffffffffffffff1663dd62ed3e600460009054906101000a900473ffffffffffffffffffffffffffffffffffffffff16306040518363ffffffff1660e01b815260040161042492919061080a565b602060405180830381865afa158015610441573d6000803e3d6000fd5b505050506040513d601f19601f820116820180604052508101906104659190610864565b10156104a6576040517f08c379a000000000000000000000000000000000000000000000000000000000815260040161049d90610949565b60405180910390fd5b61051860008054906101000a900473ffffffffffffffffffffffffffffffffffffffff16600160009054906101000a900473ffffffffffffffffffffffffffffffffffffffff16600460009054906101000a900473ffffffffffffffffffffffffffffffffffffffff166002546105b8565b61058c600360009054906101000a900473ffffffffffffffffffffffffffffffffffffffff16600460009054906101000a900473ffffffffffffffffffffffffffffffffffffffff16600160009054906101000a900473ffffffffffffffffffffffffffffffffffffffff166005546105b8565b565b60008054906101000a900473ffffffffffffffffffffffffffffffffffffffff1681565b60025481565b60008473ffffffffffffffffffffffffffffffffffffffff166323b872dd8585856040518463ffffffff1660e01b81526004016105f793929190610969565b6020604051808303816000875af1158015610616573d6000803e3d6000fd5b505050506040513d601f19601f8201168201806040525081019061063a91906109d8565b90508061067c576040517f08c379a000000000000000000000000000000000000000000000000000000000815260040161067390610a51565b60405180910390fd5b5050505050565b6000819050919050565b61069681610683565b82525050565b60006020820190506106b1600083018461068d565b92915050565b600073ffffffffffffffffffffffffffffffffffffffff82169050919050565b6000819050919050565b60006106fc6106f76106f2846106b7565b6106d7565b6106b7565b9050919050565b600061070e826106e1565b9050919050565b600061072082610703565b9050919050565b61073081610715565b82525050565b600060208201905061074b6000830184610727565b92915050565b600061075c826106b7565b9050919050565b61076c81610751565b82525050565b60006020820190506107876000830184610763565b92915050565b600082825260208201905092915050565b7f4e6f7420617574686f72697a6564000000000000000000000000000000000000600082015250565b60006107d4600e8361078d565b91506107df8261079e565b602082019050919050565b60006020820190508181036000830152610803816107c7565b9050919050565b600060408201905061081f6000830185610763565b61082c6020830184610763565b9392505050565b600080fd5b61084181610683565b811461084c57600080fd5b50565b60008151905061085e81610838565b92915050565b60006020828403121561087a57610879610833565b5b60006108888482850161084f565b91505092915050565b7f546f6b656e203120616c6c6f77616e636520746f6f206c6f7700000000000000600082015250565b60006108c760198361078d565b91506108d282610891565b602082019050919050565b600060208201905081810360008301526108f6816108ba565b9050919050565b7f546f6b656e203220616c6c6f77616e636520746f6f206c6f7700000000000000600082015250565b600061093360198361078d565b915061093e826108fd565b602082019050919050565b6000602082019050818103600083015261096281610926565b9050919050565b600060608201905061097e6000830186610763565b61098b6020830185610763565b610998604083018461068d565b949350505050565b60008115159050919050565b6109b5816109a0565b81146109c057600080fd5b50565b6000815190506109d2816109ac565b92915050565b6000602082840312156109ee576109ed610833565b5b60006109fc848285016109c3565b91505092915050565b7f546f6b656e207472616e73666572206661696c65640000000000000000000000600082015250565b6000610a3b60158361078d565b9150610a4682610a05565b602082019050919050565b60006020820190508181036000830152610a6a81610a2e565b905091905056fea2646970667358221220160e342757d3c9b78d801f77a6118a36ba42a387306dad0ed38491966771345764736f6c634300080b0033",
  "immutableReferences": {},
  "source": "// SPDX-License-Identifier: MIT\npragma solidity >=0.4.22 <0.9.0;\n\n//import \"https://github.com/OpenZeppelin/openzeppelin-contracts/blob/v4.0.0/contracts/token/ERC20/IERC20.sol\";\ninterface IERC20 { \n\n    function totalSupply() external view returns (uint256);\n    function balanceOf(address tokenOwner) external view returns (uint256 balance);\n    function transfer(address to, uint256 tokens) external returns (bool success);\n    function allowance(address tokenOwner, address spender) external view returns (uint256 remaining);\n    function approve(address spender, uint256 tokens) external returns (bool success);\n    function transferFrom(address from,address to,uint256 tokens) external returns (bool success);\n\n    event Transfer(address indexed from, address indexed to, uint256 tokens);\n    event Approval(address indexed tokenOwner,address indexed spender,uint256 tokens);\n}\n\ncontract TokenSwap {\n    IERC20 public token1;\n    address public owner1;\n    uint public amount1;\n    IERC20 public token2;\n    address public owner2;\n    uint public amount2;\n\n    constructor(\n        address _token1,\n        address _owner1,\n        uint _amount1,\n        address _token2,\n        address _owner2,\n        uint _amount2\n    ) {\n        token1 = IERC20(_token1);\n        owner1 = _owner1;\n        amount1 = _amount1;\n        token2 = IERC20(_token2);\n        owner2 = _owner2;\n        amount2 = _amount2;\n    }\n\n    function swap() public {\n        require(msg.sender == owner1 || msg.sender == owner2, \"Not authorized\");\n        require(\n            token1.allowance(owner1, address(this)) >= amount1,\n            \"Token 1 allowance too low\"\n        );\n        require(\n            token2.allowance(owner2, address(this)) >= amount2,\n            \"Token 2 allowance too low\"\n        );\n\n        _safeTransferFrom(token1, owner1, owner2, amount1);\n        _safeTransferFrom(token2, owner2, owner1, amount2);\n    }\n\n    function _safeTransferFrom(\n        IERC20 token,\n        address sender,\n        address recipient,                                         \n        uint amount\n    ) private {\n        bool sent = token.transferFrom(sender, recipient, amount);\n        require(sent, \"Token transfer failed\");\n    }\n}\n\n\n",
  "sourcePath": "C:\\Users\\harshita saxena\\OneDrive\\Desktop\\Lab5\\contracts\\TokenSwap.sol",
  "compiler": {
    "name": "solc",
    "version": "0.8.11+commit.d7f03943.Emscripten.clang"
  },
  "schemaVersion": "3.4.4",
  "updatedAt": "2022-07-15T07:03:31.052Z",
  "devdoc": {
    "kind": "dev",
    "methods": {},
    "version": 1
  },
  "userdoc": {
    "kind": "user",
    "methods": {},
    "version": 1
  }
}